:020000040800F2
:100000000804002001010008090100080B01000894
:100010000D0100080F010008110100080000000098
:1000200000000000000000000000000013010008B4
:100030001501000800000000170100081901000860
:100040001B0100081B0100081B0100081B01000820
:100050001B0100081B0100081502000835020008FA
:100060008D0200081B0100081B0100081B0100088D
:100070001B0100081B0100081B0100081B010008F0
:100080001B0100081B0100081B0100081B010008E0
:100090001B0100081B0100081B0100081B010008D0
:1000A0001B0100081B0100081B0100081B010008C0
:1000B0001B0100081B0100081B0100081B010008B0
:1000C0001B0100081B0100081B0100081B010008A0
:1000D0001B0100081B0100081B0100081B01000890
:1000E0001B0100081B0100081B010008DFF80CD0F1
:1000F00000F02EF800480047310B000808040020EB
:100100000648804706480047FEE7FEE7FEE7FEE7B1
:10011000FEE7FEE7FEE7FEE7FEE7FEE7AD080008C4
:10012000ED00000830B50B460146002020220124D6
:1001300009E021FA02F59D4205D303FA02F5491BB5
:1001400004FA02F52844151EA2F10102F1DC30BDCB
:10015000064C074D06E0E06840F0010394E8070014
:1001600098471034AC42F6D3FFF7C4FF940E000852
:10017000A40E000810B584B001200121012400F074
:100180007DFB4FF6FF70ADF8080000208DF80C00E5
:1001900001A94FF08040019400F074FC4FF08040C2
:1001A000012100F015FC4FF08040002100F068FCB8
:1001B00048F6A0444FF0804000F020FCA042F9D364
:1001C0004FF08040002100F003FC04B010BD00009F
:1001D00010B584B001200121012400F04FFB4FF63F
:1001E000FF70ADF8080000208DF80C0001A94FF059
:1001F0008040019400F046FC04B010BD10B500280A
:1002000008BF10BD044600BF013CFFF7B3FF002C40
:10021000FAD110BD80B5012000F0CEF8002808BF4B
:1002200080BD012000F05EF80120BDE8804000F0B4
:10023000BDB8000010B5022000F0BEF8002808BFCD
:1002400010BD40F60004C4F2010400BF20460221A4
:1002500000F06EF90028F9D02046802100F06EF9F8
:10026000002840F20000C2F2000005D00168B1F59C
:10027000617FBCBF64310160018804F5105000F05B
:10028000FDFB0220BDE8104000F090B810B504203E
:1002900000F092F8002808BF10BD40F60004C4F238
:1002A000010400BF2046042100F042F90028F9D0E3
:1002B0002046802100F042F9002840F20000C2F2FE
:1002C000000004D001686529A4BF64390160018879
:1002D00004F5105000F0D2FB0420BDE8104000F0FF
:1002E00065B8000070B540F6000440F20006C4F2A4
:1002F00001040428C2F2000640D00546022829D095
:10030000012D4BD12046012100F012F90028F9D02F
:100310002046102100F012F980F001022046102141
:1003200000F016F92046802100F008F980F0010263
:100330002046802100F00CF92046802100F0FEF8D4
:10034000002818BF4FF4FA70042D306016D0022D2B
:1003500024D100BF2046022100F0EAF80028F9D09D
:100360002046802100F0EAF828B13068B0F5617FBE
:10037000BCBF64303060042D10D100BF2046042182
:1003800000F0D6F80028F9D02046802100F0D6F8F9
:1003900020B130686528A4BF64383060318804F526
:1003A0001050BDE8704000F069BB000040F21441FD
:1003B000C4F201010860704740F20041C4F201013B
:1003C0000A6849690240084018BF0120002A18BF86
:1003D00001221040704700008179002940F200415D
:1003E000C4F201011FD002680B6893430B604B6895
:1003F00093434B60037943EA010CDCF800301A4365
:10040000CCF8002002688B6893438B60CB689343E1
:10041000CB60407910280ED1886810438860C86886
:100420001043C86070470279006811430A6822EAE5
:10043000000008607047084301681143016070477D
:1004400010B50C22082402EA810201F0FC01C4F27A
:1004500001044FF00F0C51F804E00CFA02F32EEAFD
:1004600003030B510B5990401843085110BD000075
:100470002DE9F047CA7802F00F0CD30644BF8B7801
:100480004CEA030C09880B0625D082465AF8144B17
:1004900000F1100E00254FF001094FF00F08002762
:1004A00006E000BF1E600137082F05F1040511D0DA
:1004B00009FA07F60E42F6D008FA05F324EA030318
:1004C0000CFA05F41C43282A5346EBD0482AEAD1FB
:1004D0007346E7E70460B1F5807F38BFBDE8F08779
:1004E000436800F1100E00F1140900254FF4807AE2
:1004F0004FF00F08002705E034600137082F05F1A1
:10050000040512D00AFA07F404EA0106A642F4D15F
:1005100008FA05F6B3430CFA05F63343282A4E468B
:10052000EAD0482AE9D17646E6E74360BDE8F0879D
:100530008068084018BF012070470000C06808406C
:1005400018BF01207047000041617047016170478A
:100550001023002A08BF1423C1507047A0F14002A5
:10056000002908BF80F08002D0B200F0E1B800009E
:1005700070B582B00820012100F08CF940F60044EB
:10058000C4F2010420464FF430610022FFF7E0FF7F
:1005900020464FF4604100224FF46046FFF7D8FF39
:1005A00040F60070C1F2010001AD019020462946DD
:1005B000FFF75EFF20462946ADF80460FFF758FFBD
:1005C00020464FF480710022FFF7C2FF20464FF40F
:1005D00000710022FFF7BCFF20464FF4806100222B
:1005E000FFF7B6FF20464FF400610022FFF7B0FF8F
:1005F00020464FF400510022FFF7AAFF20464FF497
:1006000080710122FFF7A4FF20464FF40071012200
:10061000FFF79EFF20464FF480610022FFF798FF0E
:1006200020464FF400610022FFF792FF20464FF46E
:100630000041FFF78BFF0120FFF7E0FD20464FF45C
:100640000041FFF781FF0120FFF7D8FD20464FF45E
:100650000041FFF77BFF0120FFF7D0FD20464FF45C
:100660000041FFF771FF0120FFF7C8FD20464FF45E
:100670000041FFF76BFF0120FFF7C0FD20464FF45C
:100680000041FFF761FF0120FFF7B8FD20464FF45E
:1006900080710022FFF75CFF20464FF400710122B9
:1006A000FFF756FF20464FF480610022FFF750FF0E
:1006B00020464FF400610022FFF74AFF20464FF426
:1006C0000041FFF743FF0120FFF798FD20464FF45C
:1006D0000041FFF739FF0120FFF790FD282000F0CF
:1006E00027F80C2000F024F8062000F021F8012063
:1006F00000F01EF802B070BD70B50678002E08BF7D
:1007000070BD40F60044C4F20104451E20464FF47B
:100710000051FFF71BFFF0B200F00AF820464FF43B
:100720000051FFF711FFAE780135002EEED170BDFC
:10073000B0B540F60044C4F201040546C0F300120F
:1007400020464FF48071FFF703FFC5F340122046A7
:100750004FF40071FFF7FCFEC5F3801220464FF402
:100760008061FFF7F5FEEA0920464FF40061FFF7CC
:10077000EFFE20464FF40041FFF7E8FE0120FFF7AF
:100780003DFD20464FF40041FFF7DEFE0120FFF75C
:1007900035FD05F0010220464FF48071FFF7D8FEC9
:1007A000C5F3400220464FF40071FFF7D1FEC5F3B8
:1007B000800220464FF48061FFF7CAFEC5F3C002F5
:1007C00020464FF40061FFF7C3FE20464FF400417E
:1007D000FFF7BCFE0120FFF711FD20464FF400415A
:1007E000FFF7B2FE0120BDE8B040FFF707BD0000F3
:1007F00010B5C17800294EF20011CEF200011AD0D6
:100800004EF60C52CEF200021268072323EA12229F
:100810000F23C2F1040C23FA02F24378847890F893
:1008200000E003FA0CF322401A43120101EB0E031D
:1008300083F8002300E080310078012300F01F02DC
:1008400003FA02F2C0F3421041F8202010BD00006C
:1008500040F080604EF60C5140F0FD70CEF2000189
:10086000086070474FF68072C1F6FF72114008436E
:100870004EF60851CEF2000108607047002941F29F
:100880001C01C4F202010A680CBF22EA00001043F6
:1008900008607047002941F21801C4F202010A6899
:1008A0000CBF22EA000010430860704782B041F29A
:1008B0000400C4F2020050F8041C002241F00101BF
:1008C00040F8041C0168CFF6FF021140016050F8A7
:1008D000041C4FF6FF72CFF6F662114040F8041C7C
:1008E00050F8041C21F4802140F8041C016821F414
:1008F000FE0101604FF41F01416000210191009150
:1009000050F8041C41F4803140F8041C50F8041CD9
:1009100001F400310091019901310191009919B957
:100920000199B1F5A06FF1D150F8041C890354BFAF
:100930000021012100910099012936D142F20001E4
:10094000C4F202010A6842F010020A600A6822F04A
:1009500007020A600A6842F002020A600168016048
:1009600001680160016841F480610160016821F45F
:100970007C110160016841F4E811016050F8041C29
:1009800041F0807140F8041C50F8041C8901FBD52B
:10099000016821F003010160016841F0020101607A
:1009A000016801F00C010829FAD14EF60850CEF288
:1009B00000004FF00061016002B07047028800291A
:1009C00018BF012122F0800242EAC1110180704764
:1009D0000288002918BF012122F001021144018080
:1009E00070470000B0F84420002918BF01216FF3C0
:1009F000DF3242EAC131A0F844107047808C704762
:100A0000B0B5028C22F001020284038C8288B0F817
:100A100018C00C8923F002032343A0F180444D88C1
:100A2000A4F59634B1F800E04FEAB424072C43EA69
:100A3000050313D8012505FA04F414F0E50F0DD0D1
:100A40004C8923F00C0324F004048D8823438C8903
:100A50002B4322F44072CD8922432A432CF07305A4
:100A600045EA0E0582800583C98881860384B0BD6E
:100A7000028B22F008021143018370478186704780
:100A80008184704740F6FF33B0F800C0C4F2000321
:100A900098420FDCB0F1804F1ED040F20043C4F208
:100AA0000003984218D040F60003C4F200039842B5
:100AB00012D016E040F60043C4F2000398420BD077
:100AC00043F20043C4F20103984205D042F60043CA
:100AD000C4F20103984204D14B882CF0700243EA1F
:100AE000020C41F2004240F48063C4F200029342DF
:100AF00004D0CA882CF4407342EA030CA0F800C06A
:100B00008A888285A0F18042A2F596320B884FEA4E
:100B1000B222072A038507D8012303FA02F212F052
:100B2000E50F1CBF097A0186012181827047000010
:100B300088B042F6004640F61D000121C4F20106CD
:100B40004FF00108FFF7A6FE42F20000C1F20300D9
:100B50000DF104090190A6F5E0504946FFF788FC25
:100B60000720C4F60300A6F5105A019050464946E6
:100B7000FFF77EFC002000210027FFF761FC00202A
:100B80000121FFF75DFC00200221FFF759FCD02076
:100B9000C1F20300019050464946FFF769FC5046F8
:100BA0001021FFF7D3FC072001904FF48050ADF8DF
:100BB000080001A88DF80A80FFF70EFC9F20ADF811
:100BC00014001020C0F2E730CDF8160005A9304619
:100BD000ADF81A708DF81C70FFF754FF40F2000852
:100BE000C2F200086020B8F80010C0F201000190C5
:100BF000481EADF80A0001A93046ADF80C70FFF7A9
:100C0000FFFE30460821FFF733FF30460121FFF792
:100C1000D5FE30460121FFF7E5FE30460121FFF702
:100C2000D7FE4FF000600021FFF71CFE4FF4A060DC
:100C3000FFF70EFE40F20610C0F2021001AE019066
:100C40003046FFF7D5FD40F20710C0F202100190C8
:100C50003046FFF7CDFD40F20810C0F202100190BF
:100C60003046FFF7C5FDFFF7B3FAFFF781FC0FF23F
:100C7000480B16A417A51AA6D8F8002048465946CE
:100C800000F034F850468021FFF758FC074600205A
:100C90000021FFF763FC002F28464F4604BF204683
:100CA0003746FFF729FD00200121FFF757FC3846A2
:100CB000FFF722FDE0E700BF54494D2050756C73EB
:100CC000653A202564200D0A000000005359535452
:100CD000454D00004953204143544956450000000A
:100CE0004E4F5420574F524B494E47000FB4084BBC
:100CF00010B504A902AA039800F01CF8044602A942
:100D0000002000F0C1F8204610BC5DF814FB000084
:100D1000890E000802E008C8121F08C1002AFAD193
:100D200070477047002001E001C1121F002AFBD16B
:100D3000704700002DE9FF4F89B09B46044600250F
:100D400006E025280BD05A460B999047641C6D1C71
:100D500020780028F5D10DB02846BDE8F08F002797
:100D6000B8460122474900E0074314F8013F203B01
:100D700002FA03F00842F7D120782E2819D114F88E
:100D8000010F47F004072A280ED06FF02F022078B9
:100D9000A0F1300109290CD808EB880102EB4101D0
:100DA00000EB0108641CF2E70A98641C50F8048BFD
:100DB0000A9020780028CED0642808D0692806D070
:100DC00075281ED05A460B9990476D1C58E00A9919
:100DD0004FF00A0901C90A91002802DA40422D2188
:100DE00002E0390504D52B218DF82010012103E004
:100DF000F90704D02021F7E78A4608AE0DE000216C
:100E0000FAE70A994FF00A0901C90A91F7E749463A
:100E1000FFF788F9303106F8011D0028F7D1ADEB56
:100E2000060000F12009780701D44FF00108C845F9
:100E300002DDA8EB090000E000208046002706E064
:100E400008A85A46C05D0B9990476D1C7F1C5745FA
:100E5000F6DB04E030205A460B9990476D1CB8F140
:100E60000001A8F10108F5DC05E016F8010B5A466F
:100E70000B9990476D1CB9F10001A9F10109F4DC4F
:100E8000641C65E7092801000A68531C0B60107098
:100E900070470000A40E00080000002008040000B5
:040EA000240D000815
:04000005080000ED02
:00000001FF
